{
    "abi": [
        {
            "inputs": [
                {
                    "internalType": "address",
                    "name": "_vrfCoordinator",
                    "type": "address"
                },
                {
                    "internalType": "address",
                    "name": "_link",
                    "type": "address"
                },
                {
                    "internalType": "bytes32",
                    "name": "_keyhash",
                    "type": "bytes32"
                },
                {
                    "internalType": "uint256",
                    "name": "_fee",
                    "type": "uint256"
                }
            ],
            "stateMutability": "nonpayable",
            "type": "constructor"
        },
        {
            "anonymous": false,
            "inputs": [
                {
                    "indexed": true,
                    "internalType": "address",
                    "name": "previousOwner",
                    "type": "address"
                },
                {
                    "indexed": true,
                    "internalType": "address",
                    "name": "newOwner",
                    "type": "address"
                }
            ],
            "name": "OwnershipTransferred",
            "type": "event"
        },
        {
            "inputs": [],
            "name": "_randomResult",
            "outputs": [
                {
                    "internalType": "uint256",
                    "name": "",
                    "type": "uint256"
                }
            ],
            "stateMutability": "view",
            "type": "function"
        },
        {
            "inputs": [],
            "name": "donate",
            "outputs": [],
            "stateMutability": "payable",
            "type": "function"
        },
        {
            "inputs": [],
            "name": "emptyMap",
            "outputs": [],
            "stateMutability": "nonpayable",
            "type": "function"
        },
        {
            "inputs": [],
            "name": "endLottery",
            "outputs": [],
            "stateMutability": "nonpayable",
            "type": "function"
        },
        {
            "inputs": [
                {
                    "internalType": "uint256[6]",
                    "name": "_combination",
                    "type": "uint256[6]"
                }
            ],
            "name": "enterLottery",
            "outputs": [],
            "stateMutability": "payable",
            "type": "function"
        },
        {
            "inputs": [],
            "name": "getDrawnNumbers",
            "outputs": [
                {
                    "internalType": "uint256[]",
                    "name": "",
                    "type": "uint256[]"
                }
            ],
            "stateMutability": "view",
            "type": "function"
        },
        {
            "inputs": [],
            "name": "getETHBalance",
            "outputs": [
                {
                    "internalType": "uint256",
                    "name": "",
                    "type": "uint256"
                }
            ],
            "stateMutability": "view",
            "type": "function"
        },
        {
            "inputs": [],
            "name": "getLINKBalance",
            "outputs": [
                {
                    "internalType": "uint256",
                    "name": "",
                    "type": "uint256"
                }
            ],
            "stateMutability": "view",
            "type": "function"
        },
        {
            "inputs": [],
            "name": "getListOfPlayers",
            "outputs": [
                {
                    "internalType": "address[]",
                    "name": "",
                    "type": "address[]"
                }
            ],
            "stateMutability": "view",
            "type": "function"
        },
        {
            "inputs": [],
            "name": "lottery_state",
            "outputs": [
                {
                    "internalType": "enum LuckySix.LOTTERY_STATE",
                    "name": "",
                    "type": "uint8"
                }
            ],
            "stateMutability": "view",
            "type": "function"
        },
        {
            "inputs": [],
            "name": "owner",
            "outputs": [
                {
                    "internalType": "address",
                    "name": "",
                    "type": "address"
                }
            ],
            "stateMutability": "view",
            "type": "function"
        },
        {
            "inputs": [],
            "name": "payout",
            "outputs": [],
            "stateMutability": "payable",
            "type": "function"
        },
        {
            "inputs": [
                {
                    "internalType": "bytes32",
                    "name": "requestId",
                    "type": "bytes32"
                },
                {
                    "internalType": "uint256",
                    "name": "randomness",
                    "type": "uint256"
                }
            ],
            "name": "rawFulfillRandomness",
            "outputs": [],
            "stateMutability": "nonpayable",
            "type": "function"
        },
        {
            "inputs": [],
            "name": "renounceOwnership",
            "outputs": [],
            "stateMutability": "nonpayable",
            "type": "function"
        },
        {
            "inputs": [],
            "name": "startLottery",
            "outputs": [],
            "stateMutability": "nonpayable",
            "type": "function"
        },
        {
            "inputs": [
                {
                    "internalType": "address",
                    "name": "newOwner",
                    "type": "address"
                }
            ],
            "name": "transferOwnership",
            "outputs": [],
            "stateMutability": "nonpayable",
            "type": "function"
        },
        {
            "inputs": [
                {
                    "internalType": "uint256",
                    "name": "amount",
                    "type": "uint256"
                }
            ],
            "name": "withdraw",
            "outputs": [],
            "stateMutability": "payable",
            "type": "function"
        }
    ],
    "bytecode": "610520604052600060c081815260e08290526101008290526101208290526101409190915261271061016052611d4c610180526113886101a0526109c46101c0526103e86101e0526101f46102005261012c6102205260c861024052609661026052606461028052605a6102a05260506102c05260466102e052603c61030052603261032052602861034052601e6103605260196103805260146103a052600f6103c052600a6103e052600961040052600861042052600761044081905260066104605260056104805260046104a05260036104c05260026104e052600161050052620000ee916023620001ad565b50348015620000fc57600080fd5b5060405162001c7238038062001c728339810160408190526200011f9162000237565b6001600160a01b0384811660a05283166080526200013d336200015b565b6002919091556003555050600a805460ff191660011790556200027f565b600180546001600160a01b038381166001600160a01b0319831681179093556040519116919082907f8be0079c531659141344cd1fd0a4f28419497f9722a3daafe3b4186f6b6457e090600090a35050565b828054828255906000526020600020908101928215620001f1579160200282015b82811115620001f1578251829061ffff16905591602001919060010190620001ce565b50620001ff92915062000203565b5090565b5b80821115620001ff576000815560010162000204565b80516001600160a01b03811681146200023257600080fd5b919050565b600080600080608085870312156200024e57600080fd5b62000259856200021a565b935062000269602086016200021a565b6040860151606090960151949790965092505050565b60805160a0516119b8620002ba60003960008181610a080152610c5e0152600081816103dc01528181610ac10152610c2f01526119b86000f3fe6080604052600436106100fe5760003560e01c8063715018a611610095578063ac428e7a11610064578063ac428e7a14610244578063c09d285614610259578063dc7682fc1461026f578063ed88c68e14610143578063f2fde38b1461029157600080fd5b8063715018a6146101c057806381447999146101d55780638da5cb5b146101fc57806394985ddd1461022457600080fd5b8063272d84aa116100d1578063272d84aa1461016f5780632e1a7d4d1461018257806363bd1d4a146101955780636e9472981461019d57600080fd5b806314726d88146101035780631593a8c71461012e578063160344e214610145578063203941c91461015a575b600080fd5b34801561010f57600080fd5b506101186102b1565b604051610125919061160f565b60405180910390f35b34801561013a57600080fd5b50610143610347565b005b34801561015157600080fd5b506101436104d5565b34801561016657600080fd5b50610143610586565b61014361017d366004611672565b61060e565b6101436101903660046116fe565b6107be565b610143610815565b3480156101a957600080fd5b506101b2610997565b604051908152602001610125565b3480156101cc57600080fd5b506101436109c9565b3480156101e157600080fd5b50600a546101ef9060ff1681565b604051610125919061172d565b34801561020857600080fd5b506001546040516001600160a01b039091168152602001610125565b34801561023057600080fd5b5061014361023f366004611755565b6109fd565b34801561025057600080fd5b506101b2610a7f565b34801561026557600080fd5b506101b260045481565b34801561027b57600080fd5b50610284610b39565b6040516101259190611777565b34801561029d57600080fd5b506101436102ac3660046117af565b610b90565b6001546060906001600160a01b031633146102e75760405162461bcd60e51b81526004016102de906117d8565b60405180910390fd5b600980548060200260200160405190810160405280929190818152602001828054801561033d57602002820191906000526020600020905b81546001600160a01b0316815260019091019060200180831161031f575b5050505050905090565b6001546001600160a01b031633146103715760405162461bcd60e51b81526004016102de906117d8565b6000600a5460ff16600281111561038a5761038a611717565b146103c45760405162461bcd60e51b815260206004820152600a60248201526943616e277420656e642160b01b60448201526064016102de565b6003546040516370a0823160e01b81523060048201527f00000000000000000000000000000000000000000000000000000000000000006001600160a01b0316906370a0823190602401602060405180830381865afa15801561042b573d6000803e3d6000fd5b505050506040513d601f19601f8201168201806040525081019061044f919061180d565b10156104b15760405162461bcd60e51b815260206004820152602b60248201527f4e6f7420656e6f756768204c494e4b202d2066696c6c20636f6e74726163742060448201526a1dda5d1a0819985d58d95d60aa1b60648201526084016102de565b600a805460ff19166002908117909155546003546000916104d191610c2b565b5050565b6001546001600160a01b031633146104ff5760405162461bcd60e51b81526004016102de906117d8565b6001600a5460ff16600281111561051857610518611717565b146105545760405162461bcd60e51b815260206004820152600c60248201526b43616e27742073746172742160a01b60448201526064016102de565b610560600660006114f5565b61056c600560006114f5565b60006004819055600a805460ff19166001835b0217905550565b6001546001600160a01b031633146105b05760405162461bcd60e51b81526004016102de906117d8565b60005b6009548110156105ff576105ed600982815481106105d3576105d3611826565b6000918252602090912001546001600160a01b0316610da6565b806105f781611852565b9150506105b3565b5061060c600960006114f5565b565b6000600a5460ff16600281111561062757610627611717565b146106685760405162461bcd60e51b81526020600482015260116024820152704c6f7474657279206e6f74206f70656e2160781b60448201526064016102de565b61067181610e4d565b15156001146106ba5760405162461bcd60e51b81526020600482015260156024820152742737ba103b30b634b21031b7b6b134b730ba34b7b760591b60448201526064016102de565b336000908152600860209081526040808320815180830190925284825234828401528054600181018255908452919092208251600790920201906107019082906006611513565b5060209190910151600690910155600160005b60095481101561077157336001600160a01b03166009828154811061073b5761073b611826565b6000918252602090912001546001600160a01b0316141561075f5760009150610771565b8061076981611852565b915050610714565b5080156104d157600980546001810182556000919091527f6e1540171b6c0c960b71a7020d9f60077f6af931a8bbf590da0223dacf75c7af0180546001600160a01b031916331790555050565b6001546001600160a01b031633146107e85760405162461bcd60e51b81526004016102de906117d8565b604051339082156108fc029083906000818181858888f193505050501580156104d1573d6000803e3d6000fd5b6001546001600160a01b0316331461083f5760405162461bcd60e51b81526004016102de906117d8565b6002600a5460ff16600281111561085857610858611717565b1461086257600080fd5b61086a610f28565b60005b60095481101561097b5760006108a96009838154811061088f5761088f611826565b6000918252602090912001546001600160a01b031661112b565b905047811061090d57600982815481106108c5576108c5611826565b60009182526020822001546040516001600160a01b03909116914780156108fc02929091818181858888f19350505050158015610906573d6000803e3d6000fd5b505061097b565b8015610968576009828154811061092657610926611826565b60009182526020822001546040516001600160a01b039091169183156108fc02918491818181858888f19350505050158015610966573d6000803e3d6000fd5b505b508061097381611852565b91505061086d565b50610984610586565b600a80546001919060ff1916828061057f565b6001546000906001600160a01b031633146109c45760405162461bcd60e51b81526004016102de906117d8565b504790565b6001546001600160a01b031633146109f35760405162461bcd60e51b81526004016102de906117d8565b61060c6000611258565b336001600160a01b037f00000000000000000000000000000000000000000000000000000000000000001614610a755760405162461bcd60e51b815260206004820152601f60248201527f4f6e6c7920565246436f6f7264696e61746f722063616e2066756c66696c6c0060448201526064016102de565b6104d182826112aa565b6001546000906001600160a01b03163314610aac5760405162461bcd60e51b81526004016102de906117d8565b6040516370a0823160e01b81523060048201527f00000000000000000000000000000000000000000000000000000000000000006001600160a01b0316906370a0823190602401602060405180830381865afa158015610b10573d6000803e3d6000fd5b505050506040513d601f19601f82011682018060405250810190610b34919061180d565b905090565b6060600680548060200260200160405190810160405280929190818152602001828054801561033d57602002820191906000526020600020905b815481526020019060010190808311610b73575050505050905090565b6001546001600160a01b03163314610bba5760405162461bcd60e51b81526004016102de906117d8565b6001600160a01b038116610c1f5760405162461bcd60e51b815260206004820152602660248201527f4f776e61626c653a206e6577206f776e657220697320746865207a65726f206160448201526564647265737360d01b60648201526084016102de565b610c2881611258565b50565b60007f00000000000000000000000000000000000000000000000000000000000000006001600160a01b0316634000aea07f000000000000000000000000000000000000000000000000000000000000000084866000604051602001610c9b929190918252602082015260400190565b6040516020818303038152906040526040518463ffffffff1660e01b8152600401610cc89392919061186d565b6020604051808303816000875af1158015610ce7573d6000803e3d6000fd5b505050506040513d601f19601f82011682018060405250810190610d0b91906118d9565b5060008381526020818152604080832054815180840188905280830185905230606082015260808082018390528351808303909101815260a090910190925281519183019190912086845292909152610d659060016118fb565b60008581526020818152604091829020929092558051808301879052808201849052815180820383018152606090910190915280519101205b949350505050565b6001600160a01b0381166000908152600860205260408120905b8154811015610e2b57818181548110610ddb57610ddb611826565b600091825260208220610df4926007909202019061154d565b818181548110610e0657610e06611826565b6000918252602082206006600790920201015580610e2381611852565b915050610dc0565b506001600160a01b03821660009081526008602052604081206104d19161155c565b6000805b6006811015610f1f576001838260068110610e6e57610e6e611826565b60200201511080610e9557506030838260068110610e8e57610e8e611826565b6020020151115b15610ea35750600092915050565b6000610eb08260016118fb565b90505b6006811015610f0c57838160068110610ece57610ece611826565b6020020151848360068110610ee557610ee5611826565b60200201511415610efa575060009392505050565b80610f0481611852565b915050610eb3565b5080610f1781611852565b915050610e51565b50600192915050565b6001546001600160a01b03163314610f525760405162461bcd60e51b81526004016102de906117d8565b6002600a5460ff166002811115610f6b57610f6b611717565b14610f7557600080fd5b60065415610f8257600080fd5b610f8a6112d3565b610f9890600590603061157d565b50604080516023808252610480820190925260009082602082016104608036833701905050905060005b828110156110295760045460408051602081019290925281018290526060016040516020818303038152906040528051906020012060001c82828151811061100c5761100c611826565b60209081029190910101528061102181611852565b915050610fc2565b5060305b80600d14611126578082600d611044600184611913565b61104e9190611913565b8151811061105e5761105e611826565b6020026020010151611070919061192a565b925060066005848154811061108757611087611826565b6000918252602080832090910154835460018101855593835291819020909201556005805460408051828502810185019091528181526110ff9387939192908301828280156110f557602002820191906000526020600020905b8154815260200190600101908083116110e1575b505050505061131f565b80516111139160059160209091019061157d565b508061111e8161194c565b91505061102d565b505050565b6001600160a01b0381166000908152600860205260408120548180805b8381101561124e576001600160a01b038616600090815260086020526040902080546111c091908390811061117f5761117f611826565b600091825260209091206040805160c0810191829052926007029091019060069082845b8154815260200190600101908083116111a3575050505050611440565b9150816000191461123c576001600160a01b03861660009081526008602052604090208054829081106111f5576111f5611826565b9060005260206000209060070201600601546007838154811061121a5761121a611826565b906000526020600020015461122f9190611963565b61123990846118fb565b92505b8061124681611852565b915050611148565b5090949350505050565b600180546001600160a01b038381166001600160a01b0319831681179093556040519116919082907f8be0079c531659141344cd1fd0a4f28419497f9722a3daafe3b4186f6b6457e090600090a35050565b6002600a5460ff1660028111156112c3576112c3611717565b146112cd57600080fd5b60045550565b6112db6115b7565b60005b603081101561131b576112f28160016118fb565b82826030811061130457611304611826565b60200201528061131381611852565b9150506112de565b5090565b60606000600183516113319190611913565b67ffffffffffffffff8111156113495761134961165c565b604051908082528060200260200182016040528015611372578160200160208202803683370190505b50905060005b848110156113c95783818151811061139257611392611826565b60200260200101518282815181106113ac576113ac611826565b6020908102919091010152806113c181611852565b915050611378565b5060006113d78560016118fb565b90505b8351811015611438578381815181106113f5576113f5611826565b60200260200101518260018361140b9190611913565b8151811061141b5761141b611826565b60209081029190910101528061143081611852565b9150506113da565b509392505050565b600080600019815b60068110156114dd5760005b6006548110156114ca576006818154811061147157611471611826565b906000526020600020015486836006811061148e5761148e611826565b602002015114156114b857836114a381611852565b9450508281136114b357826114b5565b805b92505b806114c281611852565b915050611454565b50806114d581611852565b915050611448565b50816006146114ee57600019610d9e565b9392505050565b5080546000825590600052602060002090810190610c2891906115d6565b8260068101928215611541579160200282015b82811115611541578251825591602001919060010190611526565b5061131b9291506115d6565b50610c289060068101906115d6565b5080546000825560070290600052602060002090810190610c2891906115eb565b8280548282559060005260206000209081019282156115415791602002820182811115611541578251825591602001919060010190611526565b6040518061060001604052806030906020820280368337509192915050565b5b8082111561131b57600081556001016115d7565b8082111561131b5760006115ff828261154d565b50600060068201556007016115eb565b6020808252825182820181905260009190848201906040850190845b818110156116505783516001600160a01b03168352928401929184019160010161162b565b50909695505050505050565b634e487b7160e01b600052604160045260246000fd5b600060c0828403121561168457600080fd5b82601f83011261169357600080fd5b60405160c0810181811067ffffffffffffffff821117156116c457634e487b7160e01b600052604160045260246000fd5b6040528060c08401858111156116d957600080fd5b845b818110156116f35780358352602092830192016116db565b509195945050505050565b60006020828403121561171057600080fd5b5035919050565b634e487b7160e01b600052602160045260246000fd5b602081016003831061174f57634e487b7160e01b600052602160045260246000fd5b91905290565b6000806040838503121561176857600080fd5b50508035926020909101359150565b6020808252825182820181905260009190848201906040850190845b8181101561165057835183529284019291840191600101611793565b6000602082840312156117c157600080fd5b81356001600160a01b03811681146114ee57600080fd5b6020808252818101527f4f776e61626c653a2063616c6c6572206973206e6f7420746865206f776e6572604082015260600190565b60006020828403121561181f57600080fd5b5051919050565b634e487b7160e01b600052603260045260246000fd5b634e487b7160e01b600052601160045260246000fd5b60006000198214156118665761186661183c565b5060010190565b60018060a01b038416815260006020848184015260606040840152835180606085015260005b818110156118af57858101830151858201608001528201611893565b818111156118c1576000608083870101525b50601f01601f19169290920160800195945050505050565b6000602082840312156118eb57600080fd5b815180151581146114ee57600080fd5b6000821982111561190e5761190e61183c565b500190565b6000828210156119255761192561183c565b500390565b60008261194757634e487b7160e01b600052601260045260246000fd5b500690565b60008161195b5761195b61183c565b506000190190565b600081600019048311821515161561197d5761197d61183c565b50029056fea2646970667358221220ebc959614d9519dc8138a87cedf1ae0fef23fec1157af3e749c884b7fab24f1364736f6c634300080a0033",
    "bytecodeSha1": "7d6c08ba88038e18621535bc5393163dd6039afc",
    "compiler": {
        "evm_version": "istanbul",
        "optimizer": {
            "enabled": true,
            "runs": 200
        },
        "version": "0.8.10+commit.fc410830"
    },
    "contractName": "LuckySix",
    "language": "Solidity",
    "natspec": {
        "kind": "dev",
        "methods": {
            "owner()": {
                "details": "Returns the address of the current owner."
            },
            "renounceOwnership()": {
                "details": "Leaves the contract without owner. It will not be possible to call `onlyOwner` functions anymore. Can only be called by the current owner. NOTE: Renouncing ownership will leave the contract without an owner, thereby removing any functionality that is only available to the owner."
            },
            "transferOwnership(address)": {
                "details": "Transfers ownership of the contract to a new account (`newOwner`). Can only be called by the current owner."
            }
        },
        "version": 1
    },
    "opcodes": "PUSH1 0x80 PUSH1 0x40 MSTORE PUSH1 0x4 CALLDATASIZE LT PUSH2 0xFE JUMPI PUSH1 0x0 CALLDATALOAD PUSH1 0xE0 SHR DUP1 PUSH4 0x715018A6 GT PUSH2 0x95 JUMPI DUP1 PUSH4 0xAC428E7A GT PUSH2 0x64 JUMPI DUP1 PUSH4 0xAC428E7A EQ PUSH2 0x244 JUMPI DUP1 PUSH4 0xC09D2856 EQ PUSH2 0x259 JUMPI DUP1 PUSH4 0xDC7682FC EQ PUSH2 0x26F JUMPI DUP1 PUSH4 0xED88C68E EQ PUSH2 0x143 JUMPI DUP1 PUSH4 0xF2FDE38B EQ PUSH2 0x291 JUMPI PUSH1 0x0 DUP1 REVERT JUMPDEST DUP1 PUSH4 0x715018A6 EQ PUSH2 0x1C0 JUMPI DUP1 PUSH4 0x81447999 EQ PUSH2 0x1D5 JUMPI DUP1 PUSH4 0x8DA5CB5B EQ PUSH2 0x1FC JUMPI DUP1 PUSH4 0x94985DDD EQ PUSH2 0x224 JUMPI PUSH1 0x0 DUP1 REVERT JUMPDEST DUP1 PUSH4 0x272D84AA GT PUSH2 0xD1 JUMPI DUP1 PUSH4 0x272D84AA EQ PUSH2 0x16F JUMPI DUP1 PUSH4 0x2E1A7D4D EQ PUSH2 0x182 JUMPI DUP1 PUSH4 0x63BD1D4A EQ PUSH2 0x195 JUMPI DUP1 PUSH4 0x6E947298 EQ PUSH2 0x19D JUMPI PUSH1 0x0 DUP1 REVERT JUMPDEST DUP1 PUSH4 0x14726D88 EQ PUSH2 0x103 JUMPI DUP1 PUSH4 0x1593A8C7 EQ PUSH2 0x12E JUMPI DUP1 PUSH4 0x160344E2 EQ PUSH2 0x145 JUMPI DUP1 PUSH4 0x203941C9 EQ PUSH2 0x15A JUMPI JUMPDEST PUSH1 0x0 DUP1 REVERT JUMPDEST CALLVALUE DUP1 ISZERO PUSH2 0x10F JUMPI PUSH1 0x0 DUP1 REVERT JUMPDEST POP PUSH2 0x118 PUSH2 0x2B1 JUMP JUMPDEST PUSH1 0x40 MLOAD PUSH2 0x125 SWAP2 SWAP1 PUSH2 0x160F JUMP JUMPDEST PUSH1 0x40 MLOAD DUP1 SWAP2 SUB SWAP1 RETURN JUMPDEST CALLVALUE DUP1 ISZERO PUSH2 0x13A JUMPI PUSH1 0x0 DUP1 REVERT JUMPDEST POP PUSH2 0x143 PUSH2 0x347 JUMP JUMPDEST STOP JUMPDEST CALLVALUE DUP1 ISZERO PUSH2 0x151 JUMPI PUSH1 0x0 DUP1 REVERT JUMPDEST POP PUSH2 0x143 PUSH2 0x4D5 JUMP JUMPDEST CALLVALUE DUP1 ISZERO PUSH2 0x166 JUMPI PUSH1 0x0 DUP1 REVERT JUMPDEST POP PUSH2 0x143 PUSH2 0x586 JUMP JUMPDEST PUSH2 0x143 PUSH2 0x17D CALLDATASIZE PUSH1 0x4 PUSH2 0x1672 JUMP JUMPDEST PUSH2 0x60E JUMP JUMPDEST PUSH2 0x143 PUSH2 0x190 CALLDATASIZE PUSH1 0x4 PUSH2 0x16FE JUMP JUMPDEST PUSH2 0x7BE JUMP JUMPDEST PUSH2 0x143 PUSH2 0x815 JUMP JUMPDEST CALLVALUE DUP1 ISZERO PUSH2 0x1A9 JUMPI PUSH1 0x0 DUP1 REVERT JUMPDEST POP PUSH2 0x1B2 PUSH2 0x997 JUMP JUMPDEST PUSH1 0x40 MLOAD SWAP1 DUP2 MSTORE PUSH1 0x20 ADD PUSH2 0x125 JUMP JUMPDEST CALLVALUE DUP1 ISZERO PUSH2 0x1CC JUMPI PUSH1 0x0 DUP1 REVERT JUMPDEST POP PUSH2 0x143 PUSH2 0x9C9 JUMP JUMPDEST CALLVALUE DUP1 ISZERO PUSH2 0x1E1 JUMPI PUSH1 0x0 DUP1 REVERT JUMPDEST POP PUSH1 0xA SLOAD PUSH2 0x1EF SWAP1 PUSH1 0xFF AND DUP2 JUMP JUMPDEST PUSH1 0x40 MLOAD PUSH2 0x125 SWAP2 SWAP1 PUSH2 0x172D JUMP JUMPDEST CALLVALUE DUP1 ISZERO PUSH2 0x208 JUMPI PUSH1 0x0 DUP1 REVERT JUMPDEST POP PUSH1 0x1 SLOAD PUSH1 0x40 MLOAD PUSH1 0x1 PUSH1 0x1 PUSH1 0xA0 SHL SUB SWAP1 SWAP2 AND DUP2 MSTORE PUSH1 0x20 ADD PUSH2 0x125 JUMP JUMPDEST CALLVALUE DUP1 ISZERO PUSH2 0x230 JUMPI PUSH1 0x0 DUP1 REVERT JUMPDEST POP PUSH2 0x143 PUSH2 0x23F CALLDATASIZE PUSH1 0x4 PUSH2 0x1755 JUMP JUMPDEST PUSH2 0x9FD JUMP JUMPDEST CALLVALUE DUP1 ISZERO PUSH2 0x250 JUMPI PUSH1 0x0 DUP1 REVERT JUMPDEST POP PUSH2 0x1B2 PUSH2 0xA7F JUMP JUMPDEST CALLVALUE DUP1 ISZERO PUSH2 0x265 JUMPI PUSH1 0x0 DUP1 REVERT JUMPDEST POP PUSH2 0x1B2 PUSH1 0x4 SLOAD DUP2 JUMP JUMPDEST CALLVALUE DUP1 ISZERO PUSH2 0x27B JUMPI PUSH1 0x0 DUP1 REVERT JUMPDEST POP PUSH2 0x284 PUSH2 0xB39 JUMP JUMPDEST PUSH1 0x40 MLOAD PUSH2 0x125 SWAP2 SWAP1 PUSH2 0x1777 JUMP JUMPDEST CALLVALUE DUP1 ISZERO PUSH2 0x29D JUMPI PUSH1 0x0 DUP1 REVERT JUMPDEST POP PUSH2 0x143 PUSH2 0x2AC CALLDATASIZE PUSH1 0x4 PUSH2 0x17AF JUMP JUMPDEST PUSH2 0xB90 JUMP JUMPDEST PUSH1 0x1 SLOAD PUSH1 0x60 SWAP1 PUSH1 0x1 PUSH1 0x1 PUSH1 0xA0 SHL SUB AND CALLER EQ PUSH2 0x2E7 JUMPI PUSH1 0x40 MLOAD PUSH3 0x461BCD PUSH1 0xE5 SHL DUP2 MSTORE PUSH1 0x4 ADD PUSH2 0x2DE SWAP1 PUSH2 0x17D8 JUMP JUMPDEST PUSH1 0x40 MLOAD DUP1 SWAP2 SUB SWAP1 REVERT JUMPDEST PUSH1 0x9 DUP1 SLOAD DUP1 PUSH1 0x20 MUL PUSH1 0x20 ADD PUSH1 0x40 MLOAD SWAP1 DUP2 ADD PUSH1 0x40 MSTORE DUP1 SWAP3 SWAP2 SWAP1 DUP2 DUP2 MSTORE PUSH1 0x20 ADD DUP3 DUP1 SLOAD DUP1 ISZERO PUSH2 0x33D JUMPI PUSH1 0x20 MUL DUP3 ADD SWAP2 SWAP1 PUSH1 0x0 MSTORE PUSH1 0x20 PUSH1 0x0 KECCAK256 SWAP1 JUMPDEST DUP2 SLOAD PUSH1 0x1 PUSH1 0x1 PUSH1 0xA0 SHL SUB AND DUP2 MSTORE PUSH1 0x1 SWAP1 SWAP2 ADD SWAP1 PUSH1 0x20 ADD DUP1 DUP4 GT PUSH2 0x31F JUMPI JUMPDEST POP POP POP POP POP SWAP1 POP SWAP1 JUMP JUMPDEST PUSH1 0x1 SLOAD PUSH1 0x1 PUSH1 0x1 PUSH1 0xA0 SHL SUB AND CALLER EQ PUSH2 0x371 JUMPI PUSH1 0x40 MLOAD PUSH3 0x461BCD PUSH1 0xE5 SHL DUP2 MSTORE PUSH1 0x4 ADD PUSH2 0x2DE SWAP1 PUSH2 0x17D8 JUMP JUMPDEST PUSH1 0x0 PUSH1 0xA SLOAD PUSH1 0xFF AND PUSH1 0x2 DUP2 GT ISZERO PUSH2 0x38A JUMPI PUSH2 0x38A PUSH2 0x1717 JUMP JUMPDEST EQ PUSH2 0x3C4 JUMPI PUSH1 0x40 MLOAD PUSH3 0x461BCD PUSH1 0xE5 SHL DUP2 MSTORE PUSH1 0x20 PUSH1 0x4 DUP3 ADD MSTORE PUSH1 0xA PUSH1 0x24 DUP3 ADD MSTORE PUSH10 0x43616E277420656E6421 PUSH1 0xB0 SHL PUSH1 0x44 DUP3 ADD MSTORE PUSH1 0x64 ADD PUSH2 0x2DE JUMP JUMPDEST PUSH1 0x3 SLOAD PUSH1 0x40 MLOAD PUSH4 0x70A08231 PUSH1 0xE0 SHL DUP2 MSTORE ADDRESS PUSH1 0x4 DUP3 ADD MSTORE PUSH32 0x0 PUSH1 0x1 PUSH1 0x1 PUSH1 0xA0 SHL SUB AND SWAP1 PUSH4 0x70A08231 SWAP1 PUSH1 0x24 ADD PUSH1 0x20 PUSH1 0x40 MLOAD DUP1 DUP4 SUB DUP2 DUP7 GAS STATICCALL ISZERO DUP1 ISZERO PUSH2 0x42B JUMPI RETURNDATASIZE PUSH1 0x0 DUP1 RETURNDATACOPY RETURNDATASIZE PUSH1 0x0 REVERT JUMPDEST POP POP POP POP PUSH1 0x40 MLOAD RETURNDATASIZE PUSH1 0x1F NOT PUSH1 0x1F DUP3 ADD AND DUP3 ADD DUP1 PUSH1 0x40 MSTORE POP DUP2 ADD SWAP1 PUSH2 0x44F SWAP2 SWAP1 PUSH2 0x180D JUMP JUMPDEST LT ISZERO PUSH2 0x4B1 JUMPI PUSH1 0x40 MLOAD PUSH3 0x461BCD PUSH1 0xE5 SHL DUP2 MSTORE PUSH1 0x20 PUSH1 0x4 DUP3 ADD MSTORE PUSH1 0x2B PUSH1 0x24 DUP3 ADD MSTORE PUSH32 0x4E6F7420656E6F756768204C494E4B202D2066696C6C20636F6E747261637420 PUSH1 0x44 DUP3 ADD MSTORE PUSH11 0x1DDA5D1A0819985D58D95D PUSH1 0xAA SHL PUSH1 0x64 DUP3 ADD MSTORE PUSH1 0x84 ADD PUSH2 0x2DE JUMP JUMPDEST PUSH1 0xA DUP1 SLOAD PUSH1 0xFF NOT AND PUSH1 0x2 SWAP1 DUP2 OR SWAP1 SWAP2 SSTORE SLOAD PUSH1 0x3 SLOAD PUSH1 0x0 SWAP2 PUSH2 0x4D1 SWAP2 PUSH2 0xC2B JUMP JUMPDEST POP POP JUMP JUMPDEST PUSH1 0x1 SLOAD PUSH1 0x1 PUSH1 0x1 PUSH1 0xA0 SHL SUB AND CALLER EQ PUSH2 0x4FF JUMPI PUSH1 0x40 MLOAD PUSH3 0x461BCD PUSH1 0xE5 SHL DUP2 MSTORE PUSH1 0x4 ADD PUSH2 0x2DE SWAP1 PUSH2 0x17D8 JUMP JUMPDEST PUSH1 0x1 PUSH1 0xA SLOAD PUSH1 0xFF AND PUSH1 0x2 DUP2 GT ISZERO PUSH2 0x518 JUMPI PUSH2 0x518 PUSH2 0x1717 JUMP JUMPDEST EQ PUSH2 0x554 JUMPI PUSH1 0x40 MLOAD PUSH3 0x461BCD PUSH1 0xE5 SHL DUP2 MSTORE PUSH1 0x20 PUSH1 0x4 DUP3 ADD MSTORE PUSH1 0xC PUSH1 0x24 DUP3 ADD MSTORE PUSH12 0x43616E277420737461727421 PUSH1 0xA0 SHL PUSH1 0x44 DUP3 ADD MSTORE PUSH1 0x64 ADD PUSH2 0x2DE JUMP JUMPDEST PUSH2 0x560 PUSH1 0x6 PUSH1 0x0 PUSH2 0x14F5 JUMP JUMPDEST PUSH2 0x56C PUSH1 0x5 PUSH1 0x0 PUSH2 0x14F5 JUMP JUMPDEST PUSH1 0x0 PUSH1 0x4 DUP2 SWAP1 SSTORE PUSH1 0xA DUP1 SLOAD PUSH1 0xFF NOT AND PUSH1 0x1 DUP4 JUMPDEST MUL OR SWAP1 SSTORE POP JUMP JUMPDEST PUSH1 0x1 SLOAD PUSH1 0x1 PUSH1 0x1 PUSH1 0xA0 SHL SUB AND CALLER EQ PUSH2 0x5B0 JUMPI PUSH1 0x40 MLOAD PUSH3 0x461BCD PUSH1 0xE5 SHL DUP2 MSTORE PUSH1 0x4 ADD PUSH2 0x2DE SWAP1 PUSH2 0x17D8 JUMP JUMPDEST PUSH1 0x0 JUMPDEST PUSH1 0x9 SLOAD DUP2 LT ISZERO PUSH2 0x5FF JUMPI PUSH2 0x5ED PUSH1 0x9 DUP3 DUP2 SLOAD DUP2 LT PUSH2 0x5D3 JUMPI PUSH2 0x5D3 PUSH2 0x1826 JUMP JUMPDEST PUSH1 0x0 SWAP2 DUP3 MSTORE PUSH1 0x20 SWAP1 SWAP2 KECCAK256 ADD SLOAD PUSH1 0x1 PUSH1 0x1 PUSH1 0xA0 SHL SUB AND PUSH2 0xDA6 JUMP JUMPDEST DUP1 PUSH2 0x5F7 DUP2 PUSH2 0x1852 JUMP JUMPDEST SWAP2 POP POP PUSH2 0x5B3 JUMP JUMPDEST POP PUSH2 0x60C PUSH1 0x9 PUSH1 0x0 PUSH2 0x14F5 JUMP JUMPDEST JUMP JUMPDEST PUSH1 0x0 PUSH1 0xA SLOAD PUSH1 0xFF AND PUSH1 0x2 DUP2 GT ISZERO PUSH2 0x627 JUMPI PUSH2 0x627 PUSH2 0x1717 JUMP JUMPDEST EQ PUSH2 0x668 JUMPI PUSH1 0x40 MLOAD PUSH3 0x461BCD PUSH1 0xE5 SHL DUP2 MSTORE PUSH1 0x20 PUSH1 0x4 DUP3 ADD MSTORE PUSH1 0x11 PUSH1 0x24 DUP3 ADD MSTORE PUSH17 0x4C6F7474657279206E6F74206F70656E21 PUSH1 0x78 SHL PUSH1 0x44 DUP3 ADD MSTORE PUSH1 0x64 ADD PUSH2 0x2DE JUMP JUMPDEST PUSH2 0x671 DUP2 PUSH2 0xE4D JUMP JUMPDEST ISZERO ISZERO PUSH1 0x1 EQ PUSH2 0x6BA JUMPI PUSH1 0x40 MLOAD PUSH3 0x461BCD PUSH1 0xE5 SHL DUP2 MSTORE PUSH1 0x20 PUSH1 0x4 DUP3 ADD MSTORE PUSH1 0x15 PUSH1 0x24 DUP3 ADD MSTORE PUSH21 0x2737BA103B30B634B21031B7B6B134B730BA34B7B7 PUSH1 0x59 SHL PUSH1 0x44 DUP3 ADD MSTORE PUSH1 0x64 ADD PUSH2 0x2DE JUMP JUMPDEST CALLER PUSH1 0x0 SWAP1 DUP2 MSTORE PUSH1 0x8 PUSH1 0x20 SWAP1 DUP2 MSTORE PUSH1 0x40 DUP1 DUP4 KECCAK256 DUP2 MLOAD DUP1 DUP4 ADD SWAP1 SWAP3 MSTORE DUP5 DUP3 MSTORE CALLVALUE DUP3 DUP5 ADD MSTORE DUP1 SLOAD PUSH1 0x1 DUP2 ADD DUP3 SSTORE SWAP1 DUP5 MSTORE SWAP2 SWAP1 SWAP3 KECCAK256 DUP3 MLOAD PUSH1 0x7 SWAP1 SWAP3 MUL ADD SWAP1 PUSH2 0x701 SWAP1 DUP3 SWAP1 PUSH1 0x6 PUSH2 0x1513 JUMP JUMPDEST POP PUSH1 0x20 SWAP2 SWAP1 SWAP2 ADD MLOAD PUSH1 0x6 SWAP1 SWAP2 ADD SSTORE PUSH1 0x1 PUSH1 0x0 JUMPDEST PUSH1 0x9 SLOAD DUP2 LT ISZERO PUSH2 0x771 JUMPI CALLER PUSH1 0x1 PUSH1 0x1 PUSH1 0xA0 SHL SUB AND PUSH1 0x9 DUP3 DUP2 SLOAD DUP2 LT PUSH2 0x73B JUMPI PUSH2 0x73B PUSH2 0x1826 JUMP JUMPDEST PUSH1 0x0 SWAP2 DUP3 MSTORE PUSH1 0x20 SWAP1 SWAP2 KECCAK256 ADD SLOAD PUSH1 0x1 PUSH1 0x1 PUSH1 0xA0 SHL SUB AND EQ ISZERO PUSH2 0x75F JUMPI PUSH1 0x0 SWAP2 POP PUSH2 0x771 JUMP JUMPDEST DUP1 PUSH2 0x769 DUP2 PUSH2 0x1852 JUMP JUMPDEST SWAP2 POP POP PUSH2 0x714 JUMP JUMPDEST POP DUP1 ISZERO PUSH2 0x4D1 JUMPI PUSH1 0x9 DUP1 SLOAD PUSH1 0x1 DUP2 ADD DUP3 SSTORE PUSH1 0x0 SWAP2 SWAP1 SWAP2 MSTORE PUSH32 0x6E1540171B6C0C960B71A7020D9F60077F6AF931A8BBF590DA0223DACF75C7AF ADD DUP1 SLOAD PUSH1 0x1 PUSH1 0x1 PUSH1 0xA0 SHL SUB NOT AND CALLER OR SWAP1 SSTORE POP POP JUMP JUMPDEST PUSH1 0x1 SLOAD PUSH1 0x1 PUSH1 0x1 PUSH1 0xA0 SHL SUB AND CALLER EQ PUSH2 0x7E8 JUMPI PUSH1 0x40 MLOAD PUSH3 0x461BCD PUSH1 0xE5 SHL DUP2 MSTORE PUSH1 0x4 ADD PUSH2 0x2DE SWAP1 PUSH2 0x17D8 JUMP JUMPDEST PUSH1 0x40 MLOAD CALLER SWAP1 DUP3 ISZERO PUSH2 0x8FC MUL SWAP1 DUP4 SWAP1 PUSH1 0x0 DUP2 DUP2 DUP2 DUP6 DUP9 DUP9 CALL SWAP4 POP POP POP POP ISZERO DUP1 ISZERO PUSH2 0x4D1 JUMPI RETURNDATASIZE PUSH1 0x0 DUP1 RETURNDATACOPY RETURNDATASIZE PUSH1 0x0 REVERT JUMPDEST PUSH1 0x1 SLOAD PUSH1 0x1 PUSH1 0x1 PUSH1 0xA0 SHL SUB AND CALLER EQ PUSH2 0x83F JUMPI PUSH1 0x40 MLOAD PUSH3 0x461BCD PUSH1 0xE5 SHL DUP2 MSTORE PUSH1 0x4 ADD PUSH2 0x2DE SWAP1 PUSH2 0x17D8 JUMP JUMPDEST PUSH1 0x2 PUSH1 0xA SLOAD PUSH1 0xFF AND PUSH1 0x2 DUP2 GT ISZERO PUSH2 0x858 JUMPI PUSH2 0x858 PUSH2 0x1717 JUMP JUMPDEST EQ PUSH2 0x862 JUMPI PUSH1 0x0 DUP1 REVERT JUMPDEST PUSH2 0x86A PUSH2 0xF28 JUMP JUMPDEST PUSH1 0x0 JUMPDEST PUSH1 0x9 SLOAD DUP2 LT ISZERO PUSH2 0x97B JUMPI PUSH1 0x0 PUSH2 0x8A9 PUSH1 0x9 DUP4 DUP2 SLOAD DUP2 LT PUSH2 0x88F JUMPI PUSH2 0x88F PUSH2 0x1826 JUMP JUMPDEST PUSH1 0x0 SWAP2 DUP3 MSTORE PUSH1 0x20 SWAP1 SWAP2 KECCAK256 ADD SLOAD PUSH1 0x1 PUSH1 0x1 PUSH1 0xA0 SHL SUB AND PUSH2 0x112B JUMP JUMPDEST SWAP1 POP SELFBALANCE DUP2 LT PUSH2 0x90D JUMPI PUSH1 0x9 DUP3 DUP2 SLOAD DUP2 LT PUSH2 0x8C5 JUMPI PUSH2 0x8C5 PUSH2 0x1826 JUMP JUMPDEST PUSH1 0x0 SWAP2 DUP3 MSTORE PUSH1 0x20 DUP3 KECCAK256 ADD SLOAD PUSH1 0x40 MLOAD PUSH1 0x1 PUSH1 0x1 PUSH1 0xA0 SHL SUB SWAP1 SWAP2 AND SWAP2 SELFBALANCE DUP1 ISZERO PUSH2 0x8FC MUL SWAP3 SWAP1 SWAP2 DUP2 DUP2 DUP2 DUP6 DUP9 DUP9 CALL SWAP4 POP POP POP POP ISZERO DUP1 ISZERO PUSH2 0x906 JUMPI RETURNDATASIZE PUSH1 0x0 DUP1 RETURNDATACOPY RETURNDATASIZE PUSH1 0x0 REVERT JUMPDEST POP POP PUSH2 0x97B JUMP JUMPDEST DUP1 ISZERO PUSH2 0x968 JUMPI PUSH1 0x9 DUP3 DUP2 SLOAD DUP2 LT PUSH2 0x926 JUMPI PUSH2 0x926 PUSH2 0x1826 JUMP JUMPDEST PUSH1 0x0 SWAP2 DUP3 MSTORE PUSH1 0x20 DUP3 KECCAK256 ADD SLOAD PUSH1 0x40 MLOAD PUSH1 0x1 PUSH1 0x1 PUSH1 0xA0 SHL SUB SWAP1 SWAP2 AND SWAP2 DUP4 ISZERO PUSH2 0x8FC MUL SWAP2 DUP5 SWAP2 DUP2 DUP2 DUP2 DUP6 DUP9 DUP9 CALL SWAP4 POP POP POP POP ISZERO DUP1 ISZERO PUSH2 0x966 JUMPI RETURNDATASIZE PUSH1 0x0 DUP1 RETURNDATACOPY RETURNDATASIZE PUSH1 0x0 REVERT JUMPDEST POP JUMPDEST POP DUP1 PUSH2 0x973 DUP2 PUSH2 0x1852 JUMP JUMPDEST SWAP2 POP POP PUSH2 0x86D JUMP JUMPDEST POP PUSH2 0x984 PUSH2 0x586 JUMP JUMPDEST PUSH1 0xA DUP1 SLOAD PUSH1 0x1 SWAP2 SWAP1 PUSH1 0xFF NOT AND DUP3 DUP1 PUSH2 0x57F JUMP JUMPDEST PUSH1 0x1 SLOAD PUSH1 0x0 SWAP1 PUSH1 0x1 PUSH1 0x1 PUSH1 0xA0 SHL SUB AND CALLER EQ PUSH2 0x9C4 JUMPI PUSH1 0x40 MLOAD PUSH3 0x461BCD PUSH1 0xE5 SHL DUP2 MSTORE PUSH1 0x4 ADD PUSH2 0x2DE SWAP1 PUSH2 0x17D8 JUMP JUMPDEST POP SELFBALANCE SWAP1 JUMP JUMPDEST PUSH1 0x1 SLOAD PUSH1 0x1 PUSH1 0x1 PUSH1 0xA0 SHL SUB AND CALLER EQ PUSH2 0x9F3 JUMPI PUSH1 0x40 MLOAD PUSH3 0x461BCD PUSH1 0xE5 SHL DUP2 MSTORE PUSH1 0x4 ADD PUSH2 0x2DE SWAP1 PUSH2 0x17D8 JUMP JUMPDEST PUSH2 0x60C PUSH1 0x0 PUSH2 0x1258 JUMP JUMPDEST CALLER PUSH1 0x1 PUSH1 0x1 PUSH1 0xA0 SHL SUB PUSH32 0x0 AND EQ PUSH2 0xA75 JUMPI PUSH1 0x40 MLOAD PUSH3 0x461BCD PUSH1 0xE5 SHL DUP2 MSTORE PUSH1 0x20 PUSH1 0x4 DUP3 ADD MSTORE PUSH1 0x1F PUSH1 0x24 DUP3 ADD MSTORE PUSH32 0x4F6E6C7920565246436F6F7264696E61746F722063616E2066756C66696C6C00 PUSH1 0x44 DUP3 ADD MSTORE PUSH1 0x64 ADD PUSH2 0x2DE JUMP JUMPDEST PUSH2 0x4D1 DUP3 DUP3 PUSH2 0x12AA JUMP JUMPDEST PUSH1 0x1 SLOAD PUSH1 0x0 SWAP1 PUSH1 0x1 PUSH1 0x1 PUSH1 0xA0 SHL SUB AND CALLER EQ PUSH2 0xAAC JUMPI PUSH1 0x40 MLOAD PUSH3 0x461BCD PUSH1 0xE5 SHL DUP2 MSTORE PUSH1 0x4 ADD PUSH2 0x2DE SWAP1 PUSH2 0x17D8 JUMP JUMPDEST PUSH1 0x40 MLOAD PUSH4 0x70A08231 PUSH1 0xE0 SHL DUP2 MSTORE ADDRESS PUSH1 0x4 DUP3 ADD MSTORE PUSH32 0x0 PUSH1 0x1 PUSH1 0x1 PUSH1 0xA0 SHL SUB AND SWAP1 PUSH4 0x70A08231 SWAP1 PUSH1 0x24 ADD PUSH1 0x20 PUSH1 0x40 MLOAD DUP1 DUP4 SUB DUP2 DUP7 GAS STATICCALL ISZERO DUP1 ISZERO PUSH2 0xB10 JUMPI RETURNDATASIZE PUSH1 0x0 DUP1 RETURNDATACOPY RETURNDATASIZE PUSH1 0x0 REVERT JUMPDEST POP POP POP POP PUSH1 0x40 MLOAD RETURNDATASIZE PUSH1 0x1F NOT PUSH1 0x1F DUP3 ADD AND DUP3 ADD DUP1 PUSH1 0x40 MSTORE POP DUP2 ADD SWAP1 PUSH2 0xB34 SWAP2 SWAP1 PUSH2 0x180D JUMP JUMPDEST SWAP1 POP SWAP1 JUMP JUMPDEST PUSH1 0x60 PUSH1 0x6 DUP1 SLOAD DUP1 PUSH1 0x20 MUL PUSH1 0x20 ADD PUSH1 0x40 MLOAD SWAP1 DUP2 ADD PUSH1 0x40 MSTORE DUP1 SWAP3 SWAP2 SWAP1 DUP2 DUP2 MSTORE PUSH1 0x20 ADD DUP3 DUP1 SLOAD DUP1 ISZERO PUSH2 0x33D JUMPI PUSH1 0x20 MUL DUP3 ADD SWAP2 SWAP1 PUSH1 0x0 MSTORE PUSH1 0x20 PUSH1 0x0 KECCAK256 SWAP1 JUMPDEST DUP2 SLOAD DUP2 MSTORE PUSH1 0x20 ADD SWAP1 PUSH1 0x1 ADD SWAP1 DUP1 DUP4 GT PUSH2 0xB73 JUMPI POP POP POP POP POP SWAP1 POP SWAP1 JUMP JUMPDEST PUSH1 0x1 SLOAD PUSH1 0x1 PUSH1 0x1 PUSH1 0xA0 SHL SUB AND CALLER EQ PUSH2 0xBBA JUMPI PUSH1 0x40 MLOAD PUSH3 0x461BCD PUSH1 0xE5 SHL DUP2 MSTORE PUSH1 0x4 ADD PUSH2 0x2DE SWAP1 PUSH2 0x17D8 JUMP JUMPDEST PUSH1 0x1 PUSH1 0x1 PUSH1 0xA0 SHL SUB DUP2 AND PUSH2 0xC1F JUMPI PUSH1 0x40 MLOAD PUSH3 0x461BCD PUSH1 0xE5 SHL DUP2 MSTORE PUSH1 0x20 PUSH1 0x4 DUP3 ADD MSTORE PUSH1 0x26 PUSH1 0x24 DUP3 ADD MSTORE PUSH32 0x4F776E61626C653A206E6577206F776E657220697320746865207A65726F2061 PUSH1 0x44 DUP3 ADD MSTORE PUSH6 0x646472657373 PUSH1 0xD0 SHL PUSH1 0x64 DUP3 ADD MSTORE PUSH1 0x84 ADD PUSH2 0x2DE JUMP JUMPDEST PUSH2 0xC28 DUP2 PUSH2 0x1258 JUMP JUMPDEST POP JUMP JUMPDEST PUSH1 0x0 PUSH32 0x0 PUSH1 0x1 PUSH1 0x1 PUSH1 0xA0 SHL SUB AND PUSH4 0x4000AEA0 PUSH32 0x0 DUP5 DUP7 PUSH1 0x0 PUSH1 0x40 MLOAD PUSH1 0x20 ADD PUSH2 0xC9B SWAP3 SWAP2 SWAP1 SWAP2 DUP3 MSTORE PUSH1 0x20 DUP3 ADD MSTORE PUSH1 0x40 ADD SWAP1 JUMP JUMPDEST PUSH1 0x40 MLOAD PUSH1 0x20 DUP2 DUP4 SUB SUB DUP2 MSTORE SWAP1 PUSH1 0x40 MSTORE PUSH1 0x40 MLOAD DUP5 PUSH4 0xFFFFFFFF AND PUSH1 0xE0 SHL DUP2 MSTORE PUSH1 0x4 ADD PUSH2 0xCC8 SWAP4 SWAP3 SWAP2 SWAP1 PUSH2 0x186D JUMP JUMPDEST PUSH1 0x20 PUSH1 0x40 MLOAD DUP1 DUP4 SUB DUP2 PUSH1 0x0 DUP8 GAS CALL ISZERO DUP1 ISZERO PUSH2 0xCE7 JUMPI RETURNDATASIZE PUSH1 0x0 DUP1 RETURNDATACOPY RETURNDATASIZE PUSH1 0x0 REVERT JUMPDEST POP POP POP POP PUSH1 0x40 MLOAD RETURNDATASIZE PUSH1 0x1F NOT PUSH1 0x1F DUP3 ADD AND DUP3 ADD DUP1 PUSH1 0x40 MSTORE POP DUP2 ADD SWAP1 PUSH2 0xD0B SWAP2 SWAP1 PUSH2 0x18D9 JUMP JUMPDEST POP PUSH1 0x0 DUP4 DUP2 MSTORE PUSH1 0x20 DUP2 DUP2 MSTORE PUSH1 0x40 DUP1 DUP4 KECCAK256 SLOAD DUP2 MLOAD DUP1 DUP5 ADD DUP9 SWAP1 MSTORE DUP1 DUP4 ADD DUP6 SWAP1 MSTORE ADDRESS PUSH1 0x60 DUP3 ADD MSTORE PUSH1 0x80 DUP1 DUP3 ADD DUP4 SWAP1 MSTORE DUP4 MLOAD DUP1 DUP4 SUB SWAP1 SWAP2 ADD DUP2 MSTORE PUSH1 0xA0 SWAP1 SWAP2 ADD SWAP1 SWAP3 MSTORE DUP2 MLOAD SWAP2 DUP4 ADD SWAP2 SWAP1 SWAP2 KECCAK256 DUP7 DUP5 MSTORE SWAP3 SWAP1 SWAP2 MSTORE PUSH2 0xD65 SWAP1 PUSH1 0x1 PUSH2 0x18FB JUMP JUMPDEST PUSH1 0x0 DUP6 DUP2 MSTORE PUSH1 0x20 DUP2 DUP2 MSTORE PUSH1 0x40 SWAP2 DUP3 SWAP1 KECCAK256 SWAP3 SWAP1 SWAP3 SSTORE DUP1 MLOAD DUP1 DUP4 ADD DUP8 SWAP1 MSTORE DUP1 DUP3 ADD DUP5 SWAP1 MSTORE DUP2 MLOAD DUP1 DUP3 SUB DUP4 ADD DUP2 MSTORE PUSH1 0x60 SWAP1 SWAP2 ADD SWAP1 SWAP2 MSTORE DUP1 MLOAD SWAP2 ADD KECCAK256 JUMPDEST SWAP5 SWAP4 POP POP POP POP JUMP JUMPDEST PUSH1 0x1 PUSH1 0x1 PUSH1 0xA0 SHL SUB DUP2 AND PUSH1 0x0 SWAP1 DUP2 MSTORE PUSH1 0x8 PUSH1 0x20 MSTORE PUSH1 0x40 DUP2 KECCAK256 SWAP1 JUMPDEST DUP2 SLOAD DUP2 LT ISZERO PUSH2 0xE2B JUMPI DUP2 DUP2 DUP2 SLOAD DUP2 LT PUSH2 0xDDB JUMPI PUSH2 0xDDB PUSH2 0x1826 JUMP JUMPDEST PUSH1 0x0 SWAP2 DUP3 MSTORE PUSH1 0x20 DUP3 KECCAK256 PUSH2 0xDF4 SWAP3 PUSH1 0x7 SWAP1 SWAP3 MUL ADD SWAP1 PUSH2 0x154D JUMP JUMPDEST DUP2 DUP2 DUP2 SLOAD DUP2 LT PUSH2 0xE06 JUMPI PUSH2 0xE06 PUSH2 0x1826 JUMP JUMPDEST PUSH1 0x0 SWAP2 DUP3 MSTORE PUSH1 0x20 DUP3 KECCAK256 PUSH1 0x6 PUSH1 0x7 SWAP1 SWAP3 MUL ADD ADD SSTORE DUP1 PUSH2 0xE23 DUP2 PUSH2 0x1852 JUMP JUMPDEST SWAP2 POP POP PUSH2 0xDC0 JUMP JUMPDEST POP PUSH1 0x1 PUSH1 0x1 PUSH1 0xA0 SHL SUB DUP3 AND PUSH1 0x0 SWAP1 DUP2 MSTORE PUSH1 0x8 PUSH1 0x20 MSTORE PUSH1 0x40 DUP2 KECCAK256 PUSH2 0x4D1 SWAP2 PUSH2 0x155C JUMP JUMPDEST PUSH1 0x0 DUP1 JUMPDEST PUSH1 0x6 DUP2 LT ISZERO PUSH2 0xF1F JUMPI PUSH1 0x1 DUP4 DUP3 PUSH1 0x6 DUP2 LT PUSH2 0xE6E JUMPI PUSH2 0xE6E PUSH2 0x1826 JUMP JUMPDEST PUSH1 0x20 MUL ADD MLOAD LT DUP1 PUSH2 0xE95 JUMPI POP PUSH1 0x30 DUP4 DUP3 PUSH1 0x6 DUP2 LT PUSH2 0xE8E JUMPI PUSH2 0xE8E PUSH2 0x1826 JUMP JUMPDEST PUSH1 0x20 MUL ADD MLOAD GT JUMPDEST ISZERO PUSH2 0xEA3 JUMPI POP PUSH1 0x0 SWAP3 SWAP2 POP POP JUMP JUMPDEST PUSH1 0x0 PUSH2 0xEB0 DUP3 PUSH1 0x1 PUSH2 0x18FB JUMP JUMPDEST SWAP1 POP JUMPDEST PUSH1 0x6 DUP2 LT ISZERO PUSH2 0xF0C JUMPI DUP4 DUP2 PUSH1 0x6 DUP2 LT PUSH2 0xECE JUMPI PUSH2 0xECE PUSH2 0x1826 JUMP JUMPDEST PUSH1 0x20 MUL ADD MLOAD DUP5 DUP4 PUSH1 0x6 DUP2 LT PUSH2 0xEE5 JUMPI PUSH2 0xEE5 PUSH2 0x1826 JUMP JUMPDEST PUSH1 0x20 MUL ADD MLOAD EQ ISZERO PUSH2 0xEFA JUMPI POP PUSH1 0x0 SWAP4 SWAP3 POP POP POP JUMP JUMPDEST DUP1 PUSH2 0xF04 DUP2 PUSH2 0x1852 JUMP JUMPDEST SWAP2 POP POP PUSH2 0xEB3 JUMP JUMPDEST POP DUP1 PUSH2 0xF17 DUP2 PUSH2 0x1852 JUMP JUMPDEST SWAP2 POP POP PUSH2 0xE51 JUMP JUMPDEST POP PUSH1 0x1 SWAP3 SWAP2 POP POP JUMP JUMPDEST PUSH1 0x1 SLOAD PUSH1 0x1 PUSH1 0x1 PUSH1 0xA0 SHL SUB AND CALLER EQ PUSH2 0xF52 JUMPI PUSH1 0x40 MLOAD PUSH3 0x461BCD PUSH1 0xE5 SHL DUP2 MSTORE PUSH1 0x4 ADD PUSH2 0x2DE SWAP1 PUSH2 0x17D8 JUMP JUMPDEST PUSH1 0x2 PUSH1 0xA SLOAD PUSH1 0xFF AND PUSH1 0x2 DUP2 GT ISZERO PUSH2 0xF6B JUMPI PUSH2 0xF6B PUSH2 0x1717 JUMP JUMPDEST EQ PUSH2 0xF75 JUMPI PUSH1 0x0 DUP1 REVERT JUMPDEST PUSH1 0x6 SLOAD ISZERO PUSH2 0xF82 JUMPI PUSH1 0x0 DUP1 REVERT JUMPDEST PUSH2 0xF8A PUSH2 0x12D3 JUMP JUMPDEST PUSH2 0xF98 SWAP1 PUSH1 0x5 SWAP1 PUSH1 0x30 PUSH2 0x157D JUMP JUMPDEST POP PUSH1 0x40 DUP1 MLOAD PUSH1 0x23 DUP1 DUP3 MSTORE PUSH2 0x480 DUP3 ADD SWAP1 SWAP3 MSTORE PUSH1 0x0 SWAP1 DUP3 PUSH1 0x20 DUP3 ADD PUSH2 0x460 DUP1 CALLDATASIZE DUP4 CALLDATACOPY ADD SWAP1 POP POP SWAP1 POP PUSH1 0x0 JUMPDEST DUP3 DUP2 LT ISZERO PUSH2 0x1029 JUMPI PUSH1 0x4 SLOAD PUSH1 0x40 DUP1 MLOAD PUSH1 0x20 DUP2 ADD SWAP3 SWAP1 SWAP3 MSTORE DUP2 ADD DUP3 SWAP1 MSTORE PUSH1 0x60 ADD PUSH1 0x40 MLOAD PUSH1 0x20 DUP2 DUP4 SUB SUB DUP2 MSTORE SWAP1 PUSH1 0x40 MSTORE DUP1 MLOAD SWAP1 PUSH1 0x20 ADD KECCAK256 PUSH1 0x0 SHR DUP3 DUP3 DUP2 MLOAD DUP2 LT PUSH2 0x100C JUMPI PUSH2 0x100C PUSH2 0x1826 JUMP JUMPDEST PUSH1 0x20 SWAP1 DUP2 MUL SWAP2 SWAP1 SWAP2 ADD ADD MSTORE DUP1 PUSH2 0x1021 DUP2 PUSH2 0x1852 JUMP JUMPDEST SWAP2 POP POP PUSH2 0xFC2 JUMP JUMPDEST POP PUSH1 0x30 JUMPDEST DUP1 PUSH1 0xD EQ PUSH2 0x1126 JUMPI DUP1 DUP3 PUSH1 0xD PUSH2 0x1044 PUSH1 0x1 DUP5 PUSH2 0x1913 JUMP JUMPDEST PUSH2 0x104E SWAP2 SWAP1 PUSH2 0x1913 JUMP JUMPDEST DUP2 MLOAD DUP2 LT PUSH2 0x105E JUMPI PUSH2 0x105E PUSH2 0x1826 JUMP JUMPDEST PUSH1 0x20 MUL PUSH1 0x20 ADD ADD MLOAD PUSH2 0x1070 SWAP2 SWAP1 PUSH2 0x192A JUMP JUMPDEST SWAP3 POP PUSH1 0x6 PUSH1 0x5 DUP5 DUP2 SLOAD DUP2 LT PUSH2 0x1087 JUMPI PUSH2 0x1087 PUSH2 0x1826 JUMP JUMPDEST PUSH1 0x0 SWAP2 DUP3 MSTORE PUSH1 0x20 DUP1 DUP4 KECCAK256 SWAP1 SWAP2 ADD SLOAD DUP4 SLOAD PUSH1 0x1 DUP2 ADD DUP6 SSTORE SWAP4 DUP4 MSTORE SWAP2 DUP2 SWAP1 KECCAK256 SWAP1 SWAP3 ADD SSTORE PUSH1 0x5 DUP1 SLOAD PUSH1 0x40 DUP1 MLOAD DUP3 DUP6 MUL DUP2 ADD DUP6 ADD SWAP1 SWAP2 MSTORE DUP2 DUP2 MSTORE PUSH2 0x10FF SWAP4 DUP8 SWAP4 SWAP2 SWAP3 SWAP1 DUP4 ADD DUP3 DUP3 DUP1 ISZERO PUSH2 0x10F5 JUMPI PUSH1 0x20 MUL DUP3 ADD SWAP2 SWAP1 PUSH1 0x0 MSTORE PUSH1 0x20 PUSH1 0x0 KECCAK256 SWAP1 JUMPDEST DUP2 SLOAD DUP2 MSTORE PUSH1 0x20 ADD SWAP1 PUSH1 0x1 ADD SWAP1 DUP1 DUP4 GT PUSH2 0x10E1 JUMPI JUMPDEST POP POP POP POP POP PUSH2 0x131F JUMP JUMPDEST DUP1 MLOAD PUSH2 0x1113 SWAP2 PUSH1 0x5 SWAP2 PUSH1 0x20 SWAP1 SWAP2 ADD SWAP1 PUSH2 0x157D JUMP JUMPDEST POP DUP1 PUSH2 0x111E DUP2 PUSH2 0x194C JUMP JUMPDEST SWAP2 POP POP PUSH2 0x102D JUMP JUMPDEST POP POP POP JUMP JUMPDEST PUSH1 0x1 PUSH1 0x1 PUSH1 0xA0 SHL SUB DUP2 AND PUSH1 0x0 SWAP1 DUP2 MSTORE PUSH1 0x8 PUSH1 0x20 MSTORE PUSH1 0x40 DUP2 KECCAK256 SLOAD DUP2 DUP1 DUP1 JUMPDEST DUP4 DUP2 LT ISZERO PUSH2 0x124E JUMPI PUSH1 0x1 PUSH1 0x1 PUSH1 0xA0 SHL SUB DUP7 AND PUSH1 0x0 SWAP1 DUP2 MSTORE PUSH1 0x8 PUSH1 0x20 MSTORE PUSH1 0x40 SWAP1 KECCAK256 DUP1 SLOAD PUSH2 0x11C0 SWAP2 SWAP1 DUP4 SWAP1 DUP2 LT PUSH2 0x117F JUMPI PUSH2 0x117F PUSH2 0x1826 JUMP JUMPDEST PUSH1 0x0 SWAP2 DUP3 MSTORE PUSH1 0x20 SWAP1 SWAP2 KECCAK256 PUSH1 0x40 DUP1 MLOAD PUSH1 0xC0 DUP2 ADD SWAP2 DUP3 SWAP1 MSTORE SWAP3 PUSH1 0x7 MUL SWAP1 SWAP2 ADD SWAP1 PUSH1 0x6 SWAP1 DUP3 DUP5 JUMPDEST DUP2 SLOAD DUP2 MSTORE PUSH1 0x20 ADD SWAP1 PUSH1 0x1 ADD SWAP1 DUP1 DUP4 GT PUSH2 0x11A3 JUMPI POP POP POP POP POP PUSH2 0x1440 JUMP JUMPDEST SWAP2 POP DUP2 PUSH1 0x0 NOT EQ PUSH2 0x123C JUMPI PUSH1 0x1 PUSH1 0x1 PUSH1 0xA0 SHL SUB DUP7 AND PUSH1 0x0 SWAP1 DUP2 MSTORE PUSH1 0x8 PUSH1 0x20 MSTORE PUSH1 0x40 SWAP1 KECCAK256 DUP1 SLOAD DUP3 SWAP1 DUP2 LT PUSH2 0x11F5 JUMPI PUSH2 0x11F5 PUSH2 0x1826 JUMP JUMPDEST SWAP1 PUSH1 0x0 MSTORE PUSH1 0x20 PUSH1 0x0 KECCAK256 SWAP1 PUSH1 0x7 MUL ADD PUSH1 0x6 ADD SLOAD PUSH1 0x7 DUP4 DUP2 SLOAD DUP2 LT PUSH2 0x121A JUMPI PUSH2 0x121A PUSH2 0x1826 JUMP JUMPDEST SWAP1 PUSH1 0x0 MSTORE PUSH1 0x20 PUSH1 0x0 KECCAK256 ADD SLOAD PUSH2 0x122F SWAP2 SWAP1 PUSH2 0x1963 JUMP JUMPDEST PUSH2 0x1239 SWAP1 DUP5 PUSH2 0x18FB JUMP JUMPDEST SWAP3 POP JUMPDEST DUP1 PUSH2 0x1246 DUP2 PUSH2 0x1852 JUMP JUMPDEST SWAP2 POP POP PUSH2 0x1148 JUMP JUMPDEST POP SWAP1 SWAP5 SWAP4 POP POP POP POP JUMP JUMPDEST PUSH1 0x1 DUP1 SLOAD PUSH1 0x1 PUSH1 0x1 PUSH1 0xA0 SHL SUB DUP4 DUP2 AND PUSH1 0x1 PUSH1 0x1 PUSH1 0xA0 SHL SUB NOT DUP4 AND DUP2 OR SWAP1 SWAP4 SSTORE PUSH1 0x40 MLOAD SWAP2 AND SWAP2 SWAP1 DUP3 SWAP1 PUSH32 0x8BE0079C531659141344CD1FD0A4F28419497F9722A3DAAFE3B4186F6B6457E0 SWAP1 PUSH1 0x0 SWAP1 LOG3 POP POP JUMP JUMPDEST PUSH1 0x2 PUSH1 0xA SLOAD PUSH1 0xFF AND PUSH1 0x2 DUP2 GT ISZERO PUSH2 0x12C3 JUMPI PUSH2 0x12C3 PUSH2 0x1717 JUMP JUMPDEST EQ PUSH2 0x12CD JUMPI PUSH1 0x0 DUP1 REVERT JUMPDEST PUSH1 0x4 SSTORE POP JUMP JUMPDEST PUSH2 0x12DB PUSH2 0x15B7 JUMP JUMPDEST PUSH1 0x0 JUMPDEST PUSH1 0x30 DUP2 LT ISZERO PUSH2 0x131B JUMPI PUSH2 0x12F2 DUP2 PUSH1 0x1 PUSH2 0x18FB JUMP JUMPDEST DUP3 DUP3 PUSH1 0x30 DUP2 LT PUSH2 0x1304 JUMPI PUSH2 0x1304 PUSH2 0x1826 JUMP JUMPDEST PUSH1 0x20 MUL ADD MSTORE DUP1 PUSH2 0x1313 DUP2 PUSH2 0x1852 JUMP JUMPDEST SWAP2 POP POP PUSH2 0x12DE JUMP JUMPDEST POP SWAP1 JUMP JUMPDEST PUSH1 0x60 PUSH1 0x0 PUSH1 0x1 DUP4 MLOAD PUSH2 0x1331 SWAP2 SWAP1 PUSH2 0x1913 JUMP JUMPDEST PUSH8 0xFFFFFFFFFFFFFFFF DUP2 GT ISZERO PUSH2 0x1349 JUMPI PUSH2 0x1349 PUSH2 0x165C JUMP JUMPDEST PUSH1 0x40 MLOAD SWAP1 DUP1 DUP3 MSTORE DUP1 PUSH1 0x20 MUL PUSH1 0x20 ADD DUP3 ADD PUSH1 0x40 MSTORE DUP1 ISZERO PUSH2 0x1372 JUMPI DUP2 PUSH1 0x20 ADD PUSH1 0x20 DUP3 MUL DUP1 CALLDATASIZE DUP4 CALLDATACOPY ADD SWAP1 POP JUMPDEST POP SWAP1 POP PUSH1 0x0 JUMPDEST DUP5 DUP2 LT ISZERO PUSH2 0x13C9 JUMPI DUP4 DUP2 DUP2 MLOAD DUP2 LT PUSH2 0x1392 JUMPI PUSH2 0x1392 PUSH2 0x1826 JUMP JUMPDEST PUSH1 0x20 MUL PUSH1 0x20 ADD ADD MLOAD DUP3 DUP3 DUP2 MLOAD DUP2 LT PUSH2 0x13AC JUMPI PUSH2 0x13AC PUSH2 0x1826 JUMP JUMPDEST PUSH1 0x20 SWAP1 DUP2 MUL SWAP2 SWAP1 SWAP2 ADD ADD MSTORE DUP1 PUSH2 0x13C1 DUP2 PUSH2 0x1852 JUMP JUMPDEST SWAP2 POP POP PUSH2 0x1378 JUMP JUMPDEST POP PUSH1 0x0 PUSH2 0x13D7 DUP6 PUSH1 0x1 PUSH2 0x18FB JUMP JUMPDEST SWAP1 POP JUMPDEST DUP4 MLOAD DUP2 LT ISZERO PUSH2 0x1438 JUMPI DUP4 DUP2 DUP2 MLOAD DUP2 LT PUSH2 0x13F5 JUMPI PUSH2 0x13F5 PUSH2 0x1826 JUMP JUMPDEST PUSH1 0x20 MUL PUSH1 0x20 ADD ADD MLOAD DUP3 PUSH1 0x1 DUP4 PUSH2 0x140B SWAP2 SWAP1 PUSH2 0x1913 JUMP JUMPDEST DUP2 MLOAD DUP2 LT PUSH2 0x141B JUMPI PUSH2 0x141B PUSH2 0x1826 JUMP JUMPDEST PUSH1 0x20 SWAP1 DUP2 MUL SWAP2 SWAP1 SWAP2 ADD ADD MSTORE DUP1 PUSH2 0x1430 DUP2 PUSH2 0x1852 JUMP JUMPDEST SWAP2 POP POP PUSH2 0x13DA JUMP JUMPDEST POP SWAP4 SWAP3 POP POP POP JUMP JUMPDEST PUSH1 0x0 DUP1 PUSH1 0x0 NOT DUP2 JUMPDEST PUSH1 0x6 DUP2 LT ISZERO PUSH2 0x14DD JUMPI PUSH1 0x0 JUMPDEST PUSH1 0x6 SLOAD DUP2 LT ISZERO PUSH2 0x14CA JUMPI PUSH1 0x6 DUP2 DUP2 SLOAD DUP2 LT PUSH2 0x1471 JUMPI PUSH2 0x1471 PUSH2 0x1826 JUMP JUMPDEST SWAP1 PUSH1 0x0 MSTORE PUSH1 0x20 PUSH1 0x0 KECCAK256 ADD SLOAD DUP7 DUP4 PUSH1 0x6 DUP2 LT PUSH2 0x148E JUMPI PUSH2 0x148E PUSH2 0x1826 JUMP JUMPDEST PUSH1 0x20 MUL ADD MLOAD EQ ISZERO PUSH2 0x14B8 JUMPI DUP4 PUSH2 0x14A3 DUP2 PUSH2 0x1852 JUMP JUMPDEST SWAP5 POP POP DUP3 DUP2 SGT PUSH2 0x14B3 JUMPI DUP3 PUSH2 0x14B5 JUMP JUMPDEST DUP1 JUMPDEST SWAP3 POP JUMPDEST DUP1 PUSH2 0x14C2 DUP2 PUSH2 0x1852 JUMP JUMPDEST SWAP2 POP POP PUSH2 0x1454 JUMP JUMPDEST POP DUP1 PUSH2 0x14D5 DUP2 PUSH2 0x1852 JUMP JUMPDEST SWAP2 POP POP PUSH2 0x1448 JUMP JUMPDEST POP DUP2 PUSH1 0x6 EQ PUSH2 0x14EE JUMPI PUSH1 0x0 NOT PUSH2 0xD9E JUMP JUMPDEST SWAP4 SWAP3 POP POP POP JUMP JUMPDEST POP DUP1 SLOAD PUSH1 0x0 DUP3 SSTORE SWAP1 PUSH1 0x0 MSTORE PUSH1 0x20 PUSH1 0x0 KECCAK256 SWAP1 DUP2 ADD SWAP1 PUSH2 0xC28 SWAP2 SWAP1 PUSH2 0x15D6 JUMP JUMPDEST DUP3 PUSH1 0x6 DUP2 ADD SWAP3 DUP3 ISZERO PUSH2 0x1541 JUMPI SWAP2 PUSH1 0x20 MUL DUP3 ADD JUMPDEST DUP3 DUP2 GT ISZERO PUSH2 0x1541 JUMPI DUP3 MLOAD DUP3 SSTORE SWAP2 PUSH1 0x20 ADD SWAP2 SWAP1 PUSH1 0x1 ADD SWAP1 PUSH2 0x1526 JUMP JUMPDEST POP PUSH2 0x131B SWAP3 SWAP2 POP PUSH2 0x15D6 JUMP JUMPDEST POP PUSH2 0xC28 SWAP1 PUSH1 0x6 DUP2 ADD SWAP1 PUSH2 0x15D6 JUMP JUMPDEST POP DUP1 SLOAD PUSH1 0x0 DUP3 SSTORE PUSH1 0x7 MUL SWAP1 PUSH1 0x0 MSTORE PUSH1 0x20 PUSH1 0x0 KECCAK256 SWAP1 DUP2 ADD SWAP1 PUSH2 0xC28 SWAP2 SWAP1 PUSH2 0x15EB JUMP JUMPDEST DUP3 DUP1 SLOAD DUP3 DUP3 SSTORE SWAP1 PUSH1 0x0 MSTORE PUSH1 0x20 PUSH1 0x0 KECCAK256 SWAP1 DUP2 ADD SWAP3 DUP3 ISZERO PUSH2 0x1541 JUMPI SWAP2 PUSH1 0x20 MUL DUP3 ADD DUP3 DUP2 GT ISZERO PUSH2 0x1541 JUMPI DUP3 MLOAD DUP3 SSTORE SWAP2 PUSH1 0x20 ADD SWAP2 SWAP1 PUSH1 0x1 ADD SWAP1 PUSH2 0x1526 JUMP JUMPDEST PUSH1 0x40 MLOAD DUP1 PUSH2 0x600 ADD PUSH1 0x40 MSTORE DUP1 PUSH1 0x30 SWAP1 PUSH1 0x20 DUP3 MUL DUP1 CALLDATASIZE DUP4 CALLDATACOPY POP SWAP2 SWAP3 SWAP2 POP POP JUMP JUMPDEST JUMPDEST DUP1 DUP3 GT ISZERO PUSH2 0x131B JUMPI PUSH1 0x0 DUP2 SSTORE PUSH1 0x1 ADD PUSH2 0x15D7 JUMP JUMPDEST DUP1 DUP3 GT ISZERO PUSH2 0x131B JUMPI PUSH1 0x0 PUSH2 0x15FF DUP3 DUP3 PUSH2 0x154D JUMP JUMPDEST POP PUSH1 0x0 PUSH1 0x6 DUP3 ADD SSTORE PUSH1 0x7 ADD PUSH2 0x15EB JUMP JUMPDEST PUSH1 0x20 DUP1 DUP3 MSTORE DUP3 MLOAD DUP3 DUP3 ADD DUP2 SWAP1 MSTORE PUSH1 0x0 SWAP2 SWAP1 DUP5 DUP3 ADD SWAP1 PUSH1 0x40 DUP6 ADD SWAP1 DUP5 JUMPDEST DUP2 DUP2 LT ISZERO PUSH2 0x1650 JUMPI DUP4 MLOAD PUSH1 0x1 PUSH1 0x1 PUSH1 0xA0 SHL SUB AND DUP4 MSTORE SWAP3 DUP5 ADD SWAP3 SWAP2 DUP5 ADD SWAP2 PUSH1 0x1 ADD PUSH2 0x162B JUMP JUMPDEST POP SWAP1 SWAP7 SWAP6 POP POP POP POP POP POP JUMP JUMPDEST PUSH4 0x4E487B71 PUSH1 0xE0 SHL PUSH1 0x0 MSTORE PUSH1 0x41 PUSH1 0x4 MSTORE PUSH1 0x24 PUSH1 0x0 REVERT JUMPDEST PUSH1 0x0 PUSH1 0xC0 DUP3 DUP5 SUB SLT ISZERO PUSH2 0x1684 JUMPI PUSH1 0x0 DUP1 REVERT JUMPDEST DUP3 PUSH1 0x1F DUP4 ADD SLT PUSH2 0x1693 JUMPI PUSH1 0x0 DUP1 REVERT JUMPDEST PUSH1 0x40 MLOAD PUSH1 0xC0 DUP2 ADD DUP2 DUP2 LT PUSH8 0xFFFFFFFFFFFFFFFF DUP3 GT OR ISZERO PUSH2 0x16C4 JUMPI PUSH4 0x4E487B71 PUSH1 0xE0 SHL PUSH1 0x0 MSTORE PUSH1 0x41 PUSH1 0x4 MSTORE PUSH1 0x24 PUSH1 0x0 REVERT JUMPDEST PUSH1 0x40 MSTORE DUP1 PUSH1 0xC0 DUP5 ADD DUP6 DUP2 GT ISZERO PUSH2 0x16D9 JUMPI PUSH1 0x0 DUP1 REVERT JUMPDEST DUP5 JUMPDEST DUP2 DUP2 LT ISZERO PUSH2 0x16F3 JUMPI DUP1 CALLDATALOAD DUP4 MSTORE PUSH1 0x20 SWAP3 DUP4 ADD SWAP3 ADD PUSH2 0x16DB JUMP JUMPDEST POP SWAP2 SWAP6 SWAP5 POP POP POP POP POP JUMP JUMPDEST PUSH1 0x0 PUSH1 0x20 DUP3 DUP5 SUB SLT ISZERO PUSH2 0x1710 JUMPI PUSH1 0x0 DUP1 REVERT JUMPDEST POP CALLDATALOAD SWAP2 SWAP1 POP JUMP JUMPDEST PUSH4 0x4E487B71 PUSH1 0xE0 SHL PUSH1 0x0 MSTORE PUSH1 0x21 PUSH1 0x4 MSTORE PUSH1 0x24 PUSH1 0x0 REVERT JUMPDEST PUSH1 0x20 DUP2 ADD PUSH1 0x3 DUP4 LT PUSH2 0x174F JUMPI PUSH4 0x4E487B71 PUSH1 0xE0 SHL PUSH1 0x0 MSTORE PUSH1 0x21 PUSH1 0x4 MSTORE PUSH1 0x24 PUSH1 0x0 REVERT JUMPDEST SWAP2 SWAP1 MSTORE SWAP1 JUMP JUMPDEST PUSH1 0x0 DUP1 PUSH1 0x40 DUP4 DUP6 SUB SLT ISZERO PUSH2 0x1768 JUMPI PUSH1 0x0 DUP1 REVERT JUMPDEST POP POP DUP1 CALLDATALOAD SWAP3 PUSH1 0x20 SWAP1 SWAP2 ADD CALLDATALOAD SWAP2 POP JUMP JUMPDEST PUSH1 0x20 DUP1 DUP3 MSTORE DUP3 MLOAD DUP3 DUP3 ADD DUP2 SWAP1 MSTORE PUSH1 0x0 SWAP2 SWAP1 DUP5 DUP3 ADD SWAP1 PUSH1 0x40 DUP6 ADD SWAP1 DUP5 JUMPDEST DUP2 DUP2 LT ISZERO PUSH2 0x1650 JUMPI DUP4 MLOAD DUP4 MSTORE SWAP3 DUP5 ADD SWAP3 SWAP2 DUP5 ADD SWAP2 PUSH1 0x1 ADD PUSH2 0x1793 JUMP JUMPDEST PUSH1 0x0 PUSH1 0x20 DUP3 DUP5 SUB SLT ISZERO PUSH2 0x17C1 JUMPI PUSH1 0x0 DUP1 REVERT JUMPDEST DUP2 CALLDATALOAD PUSH1 0x1 PUSH1 0x1 PUSH1 0xA0 SHL SUB DUP2 AND DUP2 EQ PUSH2 0x14EE JUMPI PUSH1 0x0 DUP1 REVERT JUMPDEST PUSH1 0x20 DUP1 DUP3 MSTORE DUP2 DUP2 ADD MSTORE PUSH32 0x4F776E61626C653A2063616C6C6572206973206E6F7420746865206F776E6572 PUSH1 0x40 DUP3 ADD MSTORE PUSH1 0x60 ADD SWAP1 JUMP JUMPDEST PUSH1 0x0 PUSH1 0x20 DUP3 DUP5 SUB SLT ISZERO PUSH2 0x181F JUMPI PUSH1 0x0 DUP1 REVERT JUMPDEST POP MLOAD SWAP2 SWAP1 POP JUMP JUMPDEST PUSH4 0x4E487B71 PUSH1 0xE0 SHL PUSH1 0x0 MSTORE PUSH1 0x32 PUSH1 0x4 MSTORE PUSH1 0x24 PUSH1 0x0 REVERT JUMPDEST PUSH4 0x4E487B71 PUSH1 0xE0 SHL PUSH1 0x0 MSTORE PUSH1 0x11 PUSH1 0x4 MSTORE PUSH1 0x24 PUSH1 0x0 REVERT JUMPDEST PUSH1 0x0 PUSH1 0x0 NOT DUP3 EQ ISZERO PUSH2 0x1866 JUMPI PUSH2 0x1866 PUSH2 0x183C JUMP JUMPDEST POP PUSH1 0x1 ADD SWAP1 JUMP JUMPDEST PUSH1 0x1 DUP1 PUSH1 0xA0 SHL SUB DUP5 AND DUP2 MSTORE PUSH1 0x0 PUSH1 0x20 DUP5 DUP2 DUP5 ADD MSTORE PUSH1 0x60 PUSH1 0x40 DUP5 ADD MSTORE DUP4 MLOAD DUP1 PUSH1 0x60 DUP6 ADD MSTORE PUSH1 0x0 JUMPDEST DUP2 DUP2 LT ISZERO PUSH2 0x18AF JUMPI DUP6 DUP2 ADD DUP4 ADD MLOAD DUP6 DUP3 ADD PUSH1 0x80 ADD MSTORE DUP3 ADD PUSH2 0x1893 JUMP JUMPDEST DUP2 DUP2 GT ISZERO PUSH2 0x18C1 JUMPI PUSH1 0x0 PUSH1 0x80 DUP4 DUP8 ADD ADD MSTORE JUMPDEST POP PUSH1 0x1F ADD PUSH1 0x1F NOT AND SWAP3 SWAP1 SWAP3 ADD PUSH1 0x80 ADD SWAP6 SWAP5 POP POP POP POP POP JUMP JUMPDEST PUSH1 0x0 PUSH1 0x20 DUP3 DUP5 SUB SLT ISZERO PUSH2 0x18EB JUMPI PUSH1 0x0 DUP1 REVERT JUMPDEST DUP2 MLOAD DUP1 ISZERO ISZERO DUP2 EQ PUSH2 0x14EE JUMPI PUSH1 0x0 DUP1 REVERT JUMPDEST PUSH1 0x0 DUP3 NOT DUP3 GT ISZERO PUSH2 0x190E JUMPI PUSH2 0x190E PUSH2 0x183C JUMP JUMPDEST POP ADD SWAP1 JUMP JUMPDEST PUSH1 0x0 DUP3 DUP3 LT ISZERO PUSH2 0x1925 JUMPI PUSH2 0x1925 PUSH2 0x183C JUMP JUMPDEST POP SUB SWAP1 JUMP JUMPDEST PUSH1 0x0 DUP3 PUSH2 0x1947 JUMPI PUSH4 0x4E487B71 PUSH1 0xE0 SHL PUSH1 0x0 MSTORE PUSH1 0x12 PUSH1 0x4 MSTORE PUSH1 0x24 PUSH1 0x0 REVERT JUMPDEST POP MOD SWAP1 JUMP JUMPDEST PUSH1 0x0 DUP2 PUSH2 0x195B JUMPI PUSH2 0x195B PUSH2 0x183C JUMP JUMPDEST POP PUSH1 0x0 NOT ADD SWAP1 JUMP JUMPDEST PUSH1 0x0 DUP2 PUSH1 0x0 NOT DIV DUP4 GT DUP3 ISZERO ISZERO AND ISZERO PUSH2 0x197D JUMPI PUSH2 0x197D PUSH2 0x183C JUMP JUMPDEST POP MUL SWAP1 JUMP INVALID LOG2 PUSH5 0x6970667358 0x22 SLT KECCAK256 0xEB 0xC9 MSIZE PUSH2 0x4D95 NOT 0xDC DUP2 CODESIZE 0xA8 PUSH29 0xEDF1AE0FEF23FEC1157AF3E749C884B7FAB24F1364736F6C634300080A STOP CALLER ",
    "sha1": "daa0aa3cf55bd721f4b1a50e2aa2025b81232b92",
    "source": "// SPDX-License-Identifier: MIT\n\npragma solidity ^0.8.0;\n\nimport \"@chainlink/contracts/src/v0.8/VRFConsumerBase.sol\";\nimport \"@openzeppelin/contracts/access/Ownable.sol\";\n\ncontract LuckySix is VRFConsumerBase, Ownable {\n\n    bytes32 internal keyHash;\n    uint256 internal fee;\n    uint256 public _randomResult;\n\n    uint256[] internal _allNumbers;\n    uint256[] internal _drawnNumbers;\n    uint256[] internal xBonus = [0, 0, 0, 0, 0, 10000, 7500, 5000, 2500, 1000, 500, 300, 200, 150, 100, 90, 80, 70, 60, 50, 40, 30, 25, 20, 15, 10, 9, 8, 7, 6, 5, 4, 3, 2, 1];\n\n    mapping(address => Ticket[]) internal players;\n    address[] internal listOfPlayers;\n\n    struct Ticket{\n        uint256[6] combination;\n        uint256 bet;\n    }\n\n    enum LOTTERY_STATE{\n        OPEN,\n        CLOSED,\n        CALCULATING_WINNER\n    }\n\n    LOTTERY_STATE public lottery_state;\n\n    constructor(\n        address _vrfCoordinator,\n        address _link,\n        bytes32 _keyhash,\n        uint256 _fee\n    ) VRFConsumerBase(_vrfCoordinator, _link) {\n        keyHash = _keyhash;\n        fee = _fee;\n        lottery_state = LOTTERY_STATE.CLOSED;\n    }\n\n    function startLottery()\n        public\n        onlyOwner\n    {\n        require(lottery_state == LOTTERY_STATE.CLOSED, \"Can't start!\");\n        delete(_drawnNumbers);\n        delete(_allNumbers);\n        delete(_randomResult);\n        lottery_state = LOTTERY_STATE.OPEN;\n    }\n\n    function enterLottery(uint256[6] memory _combination)\n        public\n        payable\n    {\n        require(lottery_state == LOTTERY_STATE.OPEN, \"Lottery not open!\");\n        require(checkIfValid(_combination) == true, \"Not valid combination\");\n        players[msg.sender].push(Ticket({combination: _combination, bet: msg.value}));\n        // Tracking players entered to empty map at the end of lottery\n        bool insert = true;\n        for(uint i=0; i<listOfPlayers.length; i++)\n            if(listOfPlayers[i] == msg.sender){\n                insert = false;\n                break;\n            }\n        if(insert)\n            listOfPlayers.push(msg.sender);\n    }\n\n    function endLottery()\n        public\n        onlyOwner\n    {\n        require(lottery_state == LOTTERY_STATE.OPEN, \"Can't end!\");\n        require(LINK.balanceOf(address(this)) >= fee, \"Not enough LINK - fill contract with faucet\");\n        lottery_state = LOTTERY_STATE.CALCULATING_WINNER;\n        bytes32 requestId = requestRandomness(keyHash, fee);\n    }\n\n    function fulfillRandomness(bytes32 requestId, uint256 randomness)\n        internal\n        override\n    {\n        require(lottery_state == LOTTERY_STATE.CALCULATING_WINNER);\n        _randomResult = randomness;\n    }\n\n    function payout()\n        public\n        payable\n        onlyOwner\n    {\n        require(lottery_state == LOTTERY_STATE.CALCULATING_WINNER);\n\n        drawNumbers();\n\n        for(uint i=0; i<listOfPlayers.length; i++){\n            uint tmp = cashEarned(listOfPlayers[i]);\n            // If contract don't have enought ETH transfer all to winner and end\n            if(tmp >= address(this).balance){\n                payable(listOfPlayers[i]).transfer(address(this).balance);\n                break;\n            }\n            if(tmp > 0)\n                payable(listOfPlayers[i]).transfer(tmp);\n        }\n\n        emptyMap();\n\n        lottery_state = LOTTERY_STATE.CLOSED;\n    }\n\n    function drawNumbers()\n        internal\n        onlyOwner\n    {\n        // TODO: da je lokalan niz _allNumber su ovoj fji\n        // TODO LOCAL: require(_randomResult > 0, \"random-not-found\");\n        require(lottery_state == LOTTERY_STATE.CALCULATING_WINNER);\n        require(_drawnNumbers.length == 0); // drawNumbers() cannot be called more than once\n        \n        _allNumbers = get48();\n        uint256 n = 35;\n\n        // Get 35 randomNumbers from randomValue\n        uint256[] memory randomNumbers = new uint256[](n);\n        for (uint256 i = 0; i < n; i++) {\n            randomNumbers[i] = uint256(keccak256(abi.encode(_randomResult, i)));\n        }\n\n        for (uint256 i = 48; i != 13; i--) {\n            n = randomNumbers[(i - 1) - 13] % i;\n            // Push drawn number to list\n            _drawnNumbers.push(_allNumbers[n]);\n            // Remove number we just added to _drawnNumbers from _allNumbers\n            _allNumbers = removeByIndex(n, _allNumbers);\n        }\n    }\n\n    function emptyMap()\n        public\n        onlyOwner\n    {\n        for(uint256 i=0; i<listOfPlayers.length; i++){\n            deletePlayer(listOfPlayers[i]);\n        }\n        delete(listOfPlayers);\n    }\n\n    function deletePlayer(address x)\n        internal\n    {\n        // Delete all Tickets of given address\n        Ticket[] storage tickets = players[x];\n        for(uint256 i=0; i<tickets.length; i++){\n                delete(tickets[i].combination);\n                delete(tickets[i].bet);\n        }\n        // Delete player from map\n        delete(players[x]);\n    }\n\n    function cashEarned(address player)\n        internal\n        returns(uint256)\n    {\n        // How many tickets players bought\n        uint256 n = players[player].length;\n        uint256 sum = 0;\n        int256 x;\n        for(uint i=0; i<n; i++){\n            x = returnIndexOfLastDrawnNumber(players[player][i].combination);\n            // If Ticket[i] won lottery, he gained xBonus[i] * Ticket[i].bet\n            if(x != -1)\n                sum += xBonus[uint(x)] * players[player][i].bet;\n        }\n        return sum;\n    }\n\n    function removeByIndex(uint256 index, uint256[] memory array)\n        internal\n        pure\n        returns (uint256[] memory)\n    {\n        uint256[] memory tmp = new uint256[](array.length - 1);\n        for (uint256 i = 0; i < index; i++) {\n            tmp[i] = array[i];\n        }\n        for (uint256 i = index + 1; i < array.length; i++) {\n            tmp[i-1] = array[i];\n        }\n        return tmp;\n    }\n\n    function returnIndexOfLastDrawnNumber(uint256[6] memory numbers)\n        internal\n        view\n        returns (int256)\n    {\n        uint256 counter = 0;\n        int256 index = -1;\n        for (uint256 i = 0; i < numbers.length; i++) {\n            for (uint256 j = 0; j < _drawnNumbers.length; j++) {\n                if (numbers[i] == _drawnNumbers[j]) {\n                    counter++;\n                    index = int256(j) > index ? int256(j) : index;\n                }\n            }\n        }\n        return (counter == 6 ? index : -1);\n    }\n\n    function checkIfValid(uint256[6] memory _combination)\n        internal\n        pure \n        returns(bool)\n    {\n        for(uint256 i=0; i<_combination.length; i++){\n            // Check if number is between 1 and 48\n            if(_combination[i] < 1 || _combination[i] > 48)\n                return false;\n\n            // Check if number is unique\n            for(uint256 j=i+1; j<_combination.length; j++){\n                if(_combination[i] == _combination[j])\n                    return false;\n            }\n        }\n        return true;\n    }\n\n    function withdraw(uint256 amount)\n        public\n        payable\n        onlyOwner\n    {\n        payable(msg.sender).transfer(amount);\n    }\n\n    function donate()\n        public\n        payable\n    {}\n\n    function getETHBalance()\n        public\n        view\n        onlyOwner\n        returns(uint256)\n    {\n        return address(this).balance;\n    }\n\n    function getLINKBalance()\n        public\n        view\n        onlyOwner\n        returns (uint256)\n    {\n        return LINK.balanceOf(address(this));\n    }\n\n    function get48()\n        internal\n        pure\n        returns (uint256[48] memory numbers)\n    {\n        for (uint256 i = 0; i < 48; i++)\n            numbers[i] = i + 1;\n        return numbers;\n    }\n\n    function getDrawnNumbers()\n        public\n        view\n        returns (uint256[] memory)\n    {\n        return _drawnNumbers;\n    }\n\n    function getListOfPlayers()\n        public\n        view\n        onlyOwner\n        returns (address[] memory)\n    {\n        return listOfPlayers;\n    }\n}\n",
    "sourcePath": "contracts/LuckySix.sol",
    "type": "contract"
}